{
  "address": "0x96cEBf40daba427C220327b0d3a1a85134ba7F76",
  "abi": [
    {
      "inputs": [],
      "stateMutability": "nonpayable",
      "type": "constructor"
    },
    {
      "anonymous": false,
      "inputs": [
        {
          "indexed": true,
          "internalType": "address",
          "name": "owner",
          "type": "address"
        },
        {
          "indexed": true,
          "internalType": "address",
          "name": "spender",
          "type": "address"
        },
        {
          "indexed": false,
          "internalType": "uint256",
          "name": "value",
          "type": "uint256"
        }
      ],
      "name": "Approval",
      "type": "event"
    },
    {
      "anonymous": false,
      "inputs": [
        {
          "indexed": true,
          "internalType": "address",
          "name": "from",
          "type": "address"
        },
        {
          "indexed": true,
          "internalType": "address",
          "name": "to",
          "type": "address"
        },
        {
          "indexed": false,
          "internalType": "uint256",
          "name": "value",
          "type": "uint256"
        }
      ],
      "name": "Transfer",
      "type": "event"
    },
    {
      "inputs": [
        {
          "internalType": "address",
          "name": "",
          "type": "address"
        },
        {
          "internalType": "address",
          "name": "",
          "type": "address"
        }
      ],
      "name": "allowance",
      "outputs": [
        {
          "internalType": "uint256",
          "name": "",
          "type": "uint256"
        }
      ],
      "stateMutability": "view",
      "type": "function"
    },
    {
      "inputs": [
        {
          "internalType": "address",
          "name": "_spender",
          "type": "address"
        },
        {
          "internalType": "uint256",
          "name": "_value",
          "type": "uint256"
        }
      ],
      "name": "approve",
      "outputs": [
        {
          "internalType": "bool",
          "name": "success",
          "type": "bool"
        }
      ],
      "stateMutability": "nonpayable",
      "type": "function"
    },
    {
      "inputs": [
        {
          "internalType": "address",
          "name": "",
          "type": "address"
        }
      ],
      "name": "balanceOf",
      "outputs": [
        {
          "internalType": "uint256",
          "name": "",
          "type": "uint256"
        }
      ],
      "stateMutability": "view",
      "type": "function"
    },
    {
      "inputs": [
        {
          "internalType": "uint256",
          "name": "_amount",
          "type": "uint256"
        }
      ],
      "name": "burn",
      "outputs": [],
      "stateMutability": "nonpayable",
      "type": "function"
    },
    {
      "inputs": [],
      "name": "decimals",
      "outputs": [
        {
          "internalType": "uint8",
          "name": "",
          "type": "uint8"
        }
      ],
      "stateMutability": "view",
      "type": "function"
    },
    {
      "inputs": [
        {
          "internalType": "uint256",
          "name": "_amount",
          "type": "uint256"
        }
      ],
      "name": "mint",
      "outputs": [
        {
          "internalType": "bool",
          "name": "",
          "type": "bool"
        }
      ],
      "stateMutability": "nonpayable",
      "type": "function"
    },
    {
      "inputs": [],
      "name": "name",
      "outputs": [
        {
          "internalType": "string",
          "name": "",
          "type": "string"
        }
      ],
      "stateMutability": "view",
      "type": "function"
    },
    {
      "inputs": [],
      "name": "owner",
      "outputs": [
        {
          "internalType": "address",
          "name": "",
          "type": "address"
        }
      ],
      "stateMutability": "view",
      "type": "function"
    },
    {
      "inputs": [],
      "name": "symbol",
      "outputs": [
        {
          "internalType": "string",
          "name": "",
          "type": "string"
        }
      ],
      "stateMutability": "view",
      "type": "function"
    },
    {
      "inputs": [],
      "name": "totalSupply",
      "outputs": [
        {
          "internalType": "uint256",
          "name": "",
          "type": "uint256"
        }
      ],
      "stateMutability": "view",
      "type": "function"
    },
    {
      "inputs": [
        {
          "internalType": "address",
          "name": "_to",
          "type": "address"
        },
        {
          "internalType": "uint256",
          "name": "_value",
          "type": "uint256"
        }
      ],
      "name": "transfer",
      "outputs": [
        {
          "internalType": "bool",
          "name": "success",
          "type": "bool"
        }
      ],
      "stateMutability": "nonpayable",
      "type": "function"
    },
    {
      "inputs": [
        {
          "internalType": "address",
          "name": "_from",
          "type": "address"
        },
        {
          "internalType": "address",
          "name": "_to",
          "type": "address"
        },
        {
          "internalType": "uint256",
          "name": "_value",
          "type": "uint256"
        }
      ],
      "name": "transferFrom",
      "outputs": [
        {
          "internalType": "bool",
          "name": "success",
          "type": "bool"
        }
      ],
      "stateMutability": "nonpayable",
      "type": "function"
    }
  ],
  "transactionHash": "0xcd228be9f112502563aa678d8bca1507d9cc9a3aa1f6873a4125304d450676d4",
  "args": [],
  "numDeployments": 1,
  "solcInputHash": "6300d86d3454ac97d513b9e9a95ae73a",
  "bytecode": "0x608060405234801561001057600080fd5b506040805180820190915260088152672ba1a12a37b5b2b760c11b602082015260009061003d908261012e565b506040805180820190915260038152622ba1a160e91b6020820152600190610065908261012e565b506002805460ff191660121790556000600355600480546001600160a01b031916331790556101ed565b634e487b7160e01b600052604160045260246000fd5b600181811c908216806100b957607f821691505b6020821081036100d957634e487b7160e01b600052602260045260246000fd5b50919050565b601f82111561012957600081815260208120601f850160051c810160208610156101065750805b601f850160051c820191505b8181101561012557828155600101610112565b5050505b505050565b81516001600160401b038111156101475761014761008f565b61015b8161015584546100a5565b846100df565b602080601f83116001811461019057600084156101785750858301515b600019600386901b1c1916600185901b178555610125565b600085815260208120601f198616915b828110156101bf578886015182559484019460019091019084016101a0565b50858210156101dd5787850151600019600388901b60f8161c191681555b5050505050600190811b01905550565b6108bc806101fc6000396000f3fe608060405234801561001057600080fd5b50600436106100b45760003560e01c806370a082311161007157806370a08231146101585780638da5cb5b1461017857806395d89b41146101a3578063a0712d68146101ab578063a9059cbb146101be578063dd62ed3e146101d157600080fd5b806306fdde03146100b9578063095ea7b3146100d757806318160ddd146100fa57806323b872dd14610111578063313ce5671461012457806342966c6814610143575b600080fd5b6100c16101fc565b6040516100ce9190610684565b60405180910390f35b6100ea6100e53660046106ee565b61028a565b60405190151581526020016100ce565b61010360035481565b6040519081526020016100ce565b6100ea61011f366004610718565b6102f7565b6002546101319060ff1681565b60405160ff90911681526020016100ce565b610156610151366004610754565b610479565b005b61010361016636600461076d565b60056020526000908152604090205481565b60045461018b906001600160a01b031681565b6040516001600160a01b0390911681526020016100ce565b6100c161050e565b6100ea6101b9366004610754565b61051b565b6100ea6101cc3660046106ee565b6105d9565b6101036101df36600461078f565b600660209081526000928352604080842090915290825290205481565b60008054610209906107c2565b80601f0160208091040260200160405190810160405280929190818152602001828054610235906107c2565b80156102825780601f1061025757610100808354040283529160200191610282565b820191906000526020600020905b81548152906001019060200180831161026557829003601f168201915b505050505081565b3360008181526006602090815260408083206001600160a01b038716808552925280832085905551919290917f8c5be1e5ebec7d5bd14f71427d1e84f3dd0314c0f7b2291e5b200ac8c7c3b925906102e59086815260200190565b60405180910390a35060015b92915050565b6001600160a01b0383166000908152600560205260408120548211156103385760405162461bcd60e51b815260040161032f906107fc565b60405180910390fd5b6001600160a01b03841660009081526006602090815260408083203384529091529020548211156103a05760405162461bcd60e51b8152602060048201526012602482015271105b1b1bddd85b98d948195e18d95959195960721b604482015260640161032f565b6001600160a01b038416600090815260056020526040812080548492906103c8908490610840565b90915550506001600160a01b038316600090815260056020526040812080548492906103f5908490610853565b90915550506001600160a01b03841660009081526006602090815260408083203384529091528120805484929061042d908490610840565b92505081905550826001600160a01b0316846001600160a01b03166000805160206108678339815191528460405161046791815260200190565b60405180910390a35060019392505050565b336000908152600560205260409020548111156104a85760405162461bcd60e51b815260040161032f906107fc565b33600090815260056020526040812080548392906104c7908490610840565b9250508190555080600360008282546104e09190610840565b909155505060405181815260009033906000805160206108678339815191529060200160405180910390a350565b60018054610209906107c2565b6004546000906001600160a01b0316331461056e5760405162461bcd60e51b815260206004820152601360248201527213db9b1e481bdddb995c8818d85b881b5a5b9d606a1b604482015260640161032f565b336000908152600560205260408120805484929061058d908490610853565b9250508190555081600360008282546105a69190610853565b909155505060405182815233906000906000805160206108678339815191529060200160405180910390a3506001919050565b336000908152600560205260408120548211156106085760405162461bcd60e51b815260040161032f906107fc565b3360009081526005602052604081208054849290610627908490610840565b90915550506001600160a01b03831660009081526005602052604081208054849290610654908490610853565b90915550506040518281526001600160a01b038416903390600080516020610867833981519152906020016102e5565b600060208083528351808285015260005b818110156106b157858101830151858201604001528201610695565b506000604082860101526040601f19601f8301168501019250505092915050565b80356001600160a01b03811681146106e957600080fd5b919050565b6000806040838503121561070157600080fd5b61070a836106d2565b946020939093013593505050565b60008060006060848603121561072d57600080fd5b610736846106d2565b9250610744602085016106d2565b9150604084013590509250925092565b60006020828403121561076657600080fd5b5035919050565b60006020828403121561077f57600080fd5b610788826106d2565b9392505050565b600080604083850312156107a257600080fd5b6107ab836106d2565b91506107b9602084016106d2565b90509250929050565b600181811c908216806107d657607f821691505b6020821081036107f657634e487b7160e01b600052602260045260246000fd5b50919050565b602080825260149082015273496e73756666696369656e742062616c616e636560601b604082015260600190565b634e487b7160e01b600052601160045260246000fd5b818103818111156102f1576102f161082a565b808201808211156102f1576102f161082a56feddf252ad1be2c89b69c2b068fc378daa952ba7f163c4a11628f55a4df523b3efa26469706673582212204f38341b02794d1f014f2612b302352963b4e7115cad754c5941d4b910d14cb964736f6c63430008140033",
  "devdoc": {
    "kind": "dev",
    "methods": {},
    "version": 1
  },
  "userdoc": {
    "kind": "user",
    "methods": {},
    "version": 1
  },
  "storageLayout": {
    "storage": [
      {
        "astId": 3,
        "contract": "contracts/MyERC20.sol:MyERC20",
        "label": "name",
        "offset": 0,
        "slot": "0",
        "type": "t_string_storage"
      },
      {
        "astId": 5,
        "contract": "contracts/MyERC20.sol:MyERC20",
        "label": "symbol",
        "offset": 0,
        "slot": "1",
        "type": "t_string_storage"
      },
      {
        "astId": 7,
        "contract": "contracts/MyERC20.sol:MyERC20",
        "label": "decimals",
        "offset": 0,
        "slot": "2",
        "type": "t_uint8"
      },
      {
        "astId": 9,
        "contract": "contracts/MyERC20.sol:MyERC20",
        "label": "totalSupply",
        "offset": 0,
        "slot": "3",
        "type": "t_uint256"
      },
      {
        "astId": 11,
        "contract": "contracts/MyERC20.sol:MyERC20",
        "label": "owner",
        "offset": 0,
        "slot": "4",
        "type": "t_address"
      },
      {
        "astId": 15,
        "contract": "contracts/MyERC20.sol:MyERC20",
        "label": "balanceOf",
        "offset": 0,
        "slot": "5",
        "type": "t_mapping(t_address,t_uint256)"
      },
      {
        "astId": 21,
        "contract": "contracts/MyERC20.sol:MyERC20",
        "label": "allowance",
        "offset": 0,
        "slot": "6",
        "type": "t_mapping(t_address,t_mapping(t_address,t_uint256))"
      }
    ],
    "types": {
      "t_address": {
        "encoding": "inplace",
        "label": "address",
        "numberOfBytes": "20"
      },
      "t_mapping(t_address,t_mapping(t_address,t_uint256))": {
        "encoding": "mapping",
        "key": "t_address",
        "label": "mapping(address => mapping(address => uint256))",
        "numberOfBytes": "32",
        "value": "t_mapping(t_address,t_uint256)"
      },
      "t_mapping(t_address,t_uint256)": {
        "encoding": "mapping",
        "key": "t_address",
        "label": "mapping(address => uint256)",
        "numberOfBytes": "32",
        "value": "t_uint256"
      },
      "t_string_storage": {
        "encoding": "bytes",
        "label": "string",
        "numberOfBytes": "32"
      },
      "t_uint256": {
        "encoding": "inplace",
        "label": "uint256",
        "numberOfBytes": "32"
      },
      "t_uint8": {
        "encoding": "inplace",
        "label": "uint8",
        "numberOfBytes": "1"
      }
    }
  }
}